{
  "contractName": "Mappings",
  "abi": [
    {
      "inputs": [
        {
          "internalType": "uint256",
          "name": "_id",
          "type": "uint256"
        },
        {
          "internalType": "string",
          "name": "_name",
          "type": "string"
        },
        {
          "internalType": "uint256",
          "name": "_age",
          "type": "uint256"
        },
        {
          "internalType": "string",
          "name": "_ocupation",
          "type": "string"
        }
      ],
      "name": "setPesona",
      "outputs": [],
      "stateMutability": "nonpayable",
      "type": "function"
    },
    {
      "inputs": [
        {
          "internalType": "uint256",
          "name": "_id",
          "type": "uint256"
        }
      ],
      "name": "getPersona",
      "outputs": [
        {
          "components": [
            {
              "internalType": "string",
              "name": "name",
              "type": "string"
            },
            {
              "internalType": "uint256",
              "name": "age",
              "type": "uint256"
            },
            {
              "internalType": "string",
              "name": "ocupation",
              "type": "string"
            }
          ],
          "internalType": "struct Mappings.Persona",
          "name": "",
          "type": "tuple"
        }
      ],
      "stateMutability": "view",
      "type": "function",
      "constant": true
    }
  ],
  "bytecode": "0x608060405234801561001057600080fd5b50610722806100206000396000f3fe608060405234801561001057600080fd5b50600436106100365760003560e01c806314f9dc8b1461003b578063d3ed80731461006b575b600080fd5b61005560048036038101906100509190610369565b610087565b6040516100629190610495565b60405180910390f35b610085600480360381019061008091906105ec565b6101e1565b005b61008f61025b565b6000808381526020019081526020016000206040518060600160405290816000820180546100bc906106ba565b80601f01602080910402602001604051908101604052809291908181526020018280546100e8906106ba565b80156101355780601f1061010a57610100808354040283529160200191610135565b820191906000526020600020905b81548152906001019060200180831161011857829003601f168201915b5050505050815260200160018201548152602001600282018054610158906106ba565b80601f0160208091040260200160405190810160405280929190818152602001828054610184906106ba565b80156101d15780601f106101a6576101008083540402835291602001916101d1565b820191906000526020600020905b8154815290600101906020018083116101b457829003601f168201915b5050505050815250509050919050565b604051806060016040528084815260200183815260200182815250600080868152602001908152602001600020600082015181600001908051906020019061022a92919061027c565b5060208201518160010155604082015181600201908051906020019061025192919061027c565b5090505050505050565b60405180606001604052806060815260200160008152602001606081525090565b828054610288906106ba565b90600052602060002090601f0160209004810192826102aa57600085556102f1565b82601f106102c357805160ff19168380011785556102f1565b828001600101855582156102f1579182015b828111156102f05782518255916020019190600101906102d5565b5b5090506102fe9190610302565b5090565b5b8082111561031b576000816000905550600101610303565b5090565b6000604051905090565b600080fd5b600080fd5b6000819050919050565b61034681610333565b811461035157600080fd5b50565b6000813590506103638161033d565b92915050565b60006020828403121561037f5761037e610329565b5b600061038d84828501610354565b91505092915050565b600081519050919050565b600082825260208201905092915050565b60005b838110156103d05780820151818401526020810190506103b5565b838111156103df576000848401525b50505050565b6000601f19601f8301169050919050565b600061040182610396565b61040b81856103a1565b935061041b8185602086016103b2565b610424816103e5565b840191505092915050565b61043881610333565b82525050565b6000606083016000830151848203600086015261045b82826103f6565b9150506020830151610470602086018261042f565b506040830151848203604086015261048882826103f6565b9150508091505092915050565b600060208201905081810360008301526104af818461043e565b905092915050565b600080fd5b600080fd5b7f4e487b7100000000000000000000000000000000000000000000000000000000600052604160045260246000fd5b6104f9826103e5565b810181811067ffffffffffffffff82111715610518576105176104c1565b5b80604052505050565b600061052b61031f565b905061053782826104f0565b919050565b600067ffffffffffffffff821115610557576105566104c1565b5b610560826103e5565b9050602081019050919050565b82818337600083830152505050565b600061058f61058a8461053c565b610521565b9050828152602081018484840111156105ab576105aa6104bc565b5b6105b684828561056d565b509392505050565b600082601f8301126105d3576105d26104b7565b5b81356105e384826020860161057c565b91505092915050565b6000806000806080858703121561060657610605610329565b5b600061061487828801610354565b945050602085013567ffffffffffffffff8111156106355761063461032e565b5b610641878288016105be565b935050604061065287828801610354565b925050606085013567ffffffffffffffff8111156106735761067261032e565b5b61067f878288016105be565b91505092959194509250565b7f4e487b7100000000000000000000000000000000000000000000000000000000600052602260045260246000fd5b600060028204905060018216806106d257607f821691505b602082108114156106e6576106e561068b565b5b5091905056fea26469706673582212203914c80176dd2a36c164a95f03d395acbcb1e7fec5623bc8c09225cb346f61d164736f6c634300080a0033",
  "immutableReferences": {},
  "source": "// SPDX-License-Identifier: MIT\r\n\r\npragma solidity ^0.8.10;\r\npragma experimental ABIEncoderV2;\r\n\r\ncontract Mappings {\r\n    struct Persona {\r\n        string name;\r\n        uint age;\r\n        string ocupation;\r\n    }\r\n\r\n    mapping(uint => Persona) personas;\r\n\r\n    function setPesona (uint _id, string memory _name, uint _age, string memory _ocupation) public  {\r\n        personas[_id] = Persona(_name, _age, _ocupation);\r\n    }\r\n\r\n    function getPersona (uint _id) public view returns (Persona memory) {\r\n        return personas[_id];\r\n    }\r\n\r\n}",
  "sourcePath": "C:\\Users\\vital\\Desktop\\tutotiales\\practicas\\practica_1\\contracts\\contracts\\1_contract.sol",
  "compiler": {
    "name": "solc",
    "version": "0.8.10+commit.fc410830.Emscripten.clang"
  },
  "schemaVersion": "3.4.4",
  "updatedAt": "2022-01-05T20:22:56.256Z",
  "networkType": "ethereum",
  "devdoc": {
    "kind": "dev",
    "methods": {},
    "version": 1
  },
  "userdoc": {
    "kind": "user",
    "methods": {},
    "version": 1
  }
}